{
  "_format": "hh-sol-artifact-1",
  "contractName": "CloudNFT",
  "sourceName": "contracts/CloudNFT.sol",
  "abi": [
    {
      "inputs": [
        {
          "internalType": "address",
          "name": "_marketplaceAddress",
          "type": "address"
        }
      ],
      "stateMutability": "nonpayable",
      "type": "constructor"
    },
    {
      "anonymous": false,
      "inputs": [
        {
          "indexed": true,
          "internalType": "address",
          "name": "owner",
          "type": "address"
        },
        {
          "indexed": true,
          "internalType": "address",
          "name": "approved",
          "type": "address"
        },
        {
          "indexed": true,
          "internalType": "uint256",
          "name": "tokenId",
          "type": "uint256"
        }
      ],
      "name": "Approval",
      "type": "event"
    },
    {
      "anonymous": false,
      "inputs": [
        {
          "indexed": true,
          "internalType": "address",
          "name": "owner",
          "type": "address"
        },
        {
          "indexed": true,
          "internalType": "address",
          "name": "operator",
          "type": "address"
        },
        {
          "indexed": false,
          "internalType": "bool",
          "name": "approved",
          "type": "bool"
        }
      ],
      "name": "ApprovalForAll",
      "type": "event"
    },
    {
      "anonymous": false,
      "inputs": [
        {
          "indexed": true,
          "internalType": "address",
          "name": "from",
          "type": "address"
        },
        {
          "indexed": true,
          "internalType": "address",
          "name": "to",
          "type": "address"
        },
        {
          "indexed": true,
          "internalType": "uint256",
          "name": "tokenId",
          "type": "uint256"
        }
      ],
      "name": "Transfer",
      "type": "event"
    },
    {
      "inputs": [
        {
          "internalType": "address",
          "name": "to",
          "type": "address"
        },
        {
          "internalType": "uint256",
          "name": "tokenId",
          "type": "uint256"
        }
      ],
      "name": "approve",
      "outputs": [],
      "stateMutability": "nonpayable",
      "type": "function"
    },
    {
      "inputs": [
        {
          "internalType": "address",
          "name": "owner",
          "type": "address"
        }
      ],
      "name": "balanceOf",
      "outputs": [
        {
          "internalType": "uint256",
          "name": "",
          "type": "uint256"
        }
      ],
      "stateMutability": "view",
      "type": "function"
    },
    {
      "inputs": [
        {
          "internalType": "uint256",
          "name": "tokenId",
          "type": "uint256"
        }
      ],
      "name": "getApproved",
      "outputs": [
        {
          "internalType": "address",
          "name": "",
          "type": "address"
        }
      ],
      "stateMutability": "view",
      "type": "function"
    },
    {
      "inputs": [
        {
          "internalType": "address",
          "name": "to",
          "type": "address"
        }
      ],
      "name": "giveAway",
      "outputs": [],
      "stateMutability": "nonpayable",
      "type": "function"
    },
    {
      "inputs": [
        {
          "internalType": "address",
          "name": "owner",
          "type": "address"
        },
        {
          "internalType": "address",
          "name": "operator",
          "type": "address"
        }
      ],
      "name": "isApprovedForAll",
      "outputs": [
        {
          "internalType": "bool",
          "name": "",
          "type": "bool"
        }
      ],
      "stateMutability": "view",
      "type": "function"
    },
    {
      "inputs": [],
      "name": "marketplaceAddress",
      "outputs": [
        {
          "internalType": "address",
          "name": "",
          "type": "address"
        }
      ],
      "stateMutability": "view",
      "type": "function"
    },
    {
      "inputs": [],
      "name": "name",
      "outputs": [
        {
          "internalType": "string",
          "name": "",
          "type": "string"
        }
      ],
      "stateMutability": "view",
      "type": "function"
    },
    {
      "inputs": [
        {
          "internalType": "uint256",
          "name": "tokenId",
          "type": "uint256"
        }
      ],
      "name": "ownerOf",
      "outputs": [
        {
          "internalType": "address",
          "name": "",
          "type": "address"
        }
      ],
      "stateMutability": "view",
      "type": "function"
    },
    {
      "inputs": [
        {
          "internalType": "address",
          "name": "from",
          "type": "address"
        },
        {
          "internalType": "address",
          "name": "to",
          "type": "address"
        },
        {
          "internalType": "uint256",
          "name": "tokenId",
          "type": "uint256"
        }
      ],
      "name": "safeTransferFrom",
      "outputs": [],
      "stateMutability": "nonpayable",
      "type": "function"
    },
    {
      "inputs": [
        {
          "internalType": "address",
          "name": "from",
          "type": "address"
        },
        {
          "internalType": "address",
          "name": "to",
          "type": "address"
        },
        {
          "internalType": "uint256",
          "name": "tokenId",
          "type": "uint256"
        },
        {
          "internalType": "bytes",
          "name": "data",
          "type": "bytes"
        }
      ],
      "name": "safeTransferFrom",
      "outputs": [],
      "stateMutability": "nonpayable",
      "type": "function"
    },
    {
      "inputs": [
        {
          "internalType": "address",
          "name": "operator",
          "type": "address"
        },
        {
          "internalType": "bool",
          "name": "approved",
          "type": "bool"
        }
      ],
      "name": "setApprovalForAll",
      "outputs": [],
      "stateMutability": "nonpayable",
      "type": "function"
    },
    {
      "inputs": [
        {
          "internalType": "bytes4",
          "name": "interfaceId",
          "type": "bytes4"
        }
      ],
      "name": "supportsInterface",
      "outputs": [
        {
          "internalType": "bool",
          "name": "",
          "type": "bool"
        }
      ],
      "stateMutability": "view",
      "type": "function"
    },
    {
      "inputs": [],
      "name": "symbol",
      "outputs": [
        {
          "internalType": "string",
          "name": "",
          "type": "string"
        }
      ],
      "stateMutability": "view",
      "type": "function"
    },
    {
      "inputs": [
        {
          "internalType": "uint256",
          "name": "index",
          "type": "uint256"
        }
      ],
      "name": "tokenByIndex",
      "outputs": [
        {
          "internalType": "uint256",
          "name": "",
          "type": "uint256"
        }
      ],
      "stateMutability": "view",
      "type": "function"
    },
    {
      "inputs": [
        {
          "internalType": "address",
          "name": "owner",
          "type": "address"
        },
        {
          "internalType": "uint256",
          "name": "index",
          "type": "uint256"
        }
      ],
      "name": "tokenOfOwnerByIndex",
      "outputs": [
        {
          "internalType": "uint256",
          "name": "",
          "type": "uint256"
        }
      ],
      "stateMutability": "view",
      "type": "function"
    },
    {
      "inputs": [
        {
          "internalType": "uint256",
          "name": "tokenId",
          "type": "uint256"
        }
      ],
      "name": "tokenURI",
      "outputs": [
        {
          "internalType": "string",
          "name": "",
          "type": "string"
        }
      ],
      "stateMutability": "view",
      "type": "function"
    },
    {
      "inputs": [],
      "name": "totalSupply",
      "outputs": [
        {
          "internalType": "uint256",
          "name": "",
          "type": "uint256"
        }
      ],
      "stateMutability": "view",
      "type": "function"
    },
    {
      "inputs": [
        {
          "internalType": "address",
          "name": "from",
          "type": "address"
        },
        {
          "internalType": "address",
          "name": "to",
          "type": "address"
        },
        {
          "internalType": "uint256",
          "name": "tokenId",
          "type": "uint256"
        }
      ],
      "name": "transferFrom",
      "outputs": [],
      "stateMutability": "nonpayable",
      "type": "function"
    }
  ],
  "bytecode": "0x60806040523480156200001157600080fd5b50604051620038ff380380620038ff83398181016040528101906200003791906200017b565b6040518060400160405280600881526020017f436c6f75644e46540000000000000000000000000000000000000000000000008152506040518060400160405280600581526020017f434c4f55440000000000000000000000000000000000000000000000000000008152508160009081620000b4919062000427565b508060019081620000c6919062000427565b50505080600c60006101000a81548173ffffffffffffffffffffffffffffffffffffffff021916908373ffffffffffffffffffffffffffffffffffffffff160217905550506200050e565b600080fd5b600073ffffffffffffffffffffffffffffffffffffffff82169050919050565b6000620001438262000116565b9050919050565b620001558162000136565b81146200016157600080fd5b50565b60008151905062000175816200014a565b92915050565b60006020828403121562000194576200019362000111565b5b6000620001a48482850162000164565b91505092915050565b600081519050919050565b7f4e487b7100000000000000000000000000000000000000000000000000000000600052604160045260246000fd5b7f4e487b7100000000000000000000000000000000000000000000000000000000600052602260045260246000fd5b600060028204905060018216806200022f57607f821691505b602082108103620002455762000244620001e7565b5b50919050565b60008190508160005260206000209050919050565b60006020601f8301049050919050565b600082821b905092915050565b600060088302620002af7fffffffffffffffffffffffffffffffffffffffffffffffffffffffffffffffff8262000270565b620002bb868362000270565b95508019841693508086168417925050509392505050565b6000819050919050565b6000819050919050565b60006200030862000302620002fc84620002d3565b620002dd565b620002d3565b9050919050565b6000819050919050565b6200032483620002e7565b6200033c62000333826200030f565b8484546200027d565b825550505050565b600090565b6200035362000344565b6200036081848462000319565b505050565b5b8181101562000388576200037c60008262000349565b60018101905062000366565b5050565b601f821115620003d757620003a1816200024b565b620003ac8462000260565b81016020851015620003bc578190505b620003d4620003cb8562000260565b83018262000365565b50505b505050565b600082821c905092915050565b6000620003fc60001984600802620003dc565b1980831691505092915050565b6000620004178383620003e9565b9150826002028217905092915050565b6200043282620001ad565b67ffffffffffffffff8111156200044e576200044d620001b8565b5b6200045a825462000216565b620004678282856200038c565b600060209050601f8311600181146200049f57600084156200048a578287015190505b62000496858262000409565b86555062000506565b601f198416620004af866200024b565b60005b82811015620004d957848901518255600182019150602085019450602081019050620004b2565b86831015620004f95784890151620004f5601f891682620003e9565b8355505b6001600288020188555050505b505050505050565b6133e1806200051e6000396000f3fe608060405234801561001057600080fd5b50600436106101165760003560e01c80636352211e116100a2578063a22cb46511610071578063a22cb46514610305578063b88d4fde14610321578063c87b56dd1461033d578063daa17f491461036d578063e985e9c51461038b57610116565b80636352211e1461026b57806370a082311461029b57806395d89b41146102cb5780639e240785146102e957610116565b806318160ddd116100e957806318160ddd146101b557806323b872dd146101d35780632f745c59146101ef57806342842e0e1461021f5780634f6ccce71461023b57610116565b806301ffc9a71461011b57806306fdde031461014b578063081812fc14610169578063095ea7b314610199575b600080fd5b6101356004803603810190610130919061205e565b6103bb565b60405161014291906120a6565b60405180910390f35b6101536103cd565b6040516101609190612151565b60405180910390f35b610183600480360381019061017e91906121a9565b61045f565b6040516101909190612217565b60405180910390f35b6101b360048036038101906101ae919061225e565b6104a5565b005b6101bd6105bc565b6040516101ca91906122ad565b60405180910390f35b6101ed60048036038101906101e891906122c8565b6105c9565b005b6102096004803603810190610204919061225e565b610629565b60405161021691906122ad565b60405180910390f35b610239600480360381019061023491906122c8565b6106ce565b005b610255600480360381019061025091906121a9565b6106ee565b60405161026291906122ad565b60405180910390f35b610285600480360381019061028091906121a9565b61075f565b6040516102929190612217565b60405180910390f35b6102b560048036038101906102b0919061231b565b610810565b6040516102c291906122ad565b60405180910390f35b6102d36108c7565b6040516102e09190612151565b60405180910390f35b61030360048036038101906102fe919061231b565b610959565b005b61031f600480360381019061031a9190612374565b610a0e565b005b61033b600480360381019061033691906124e9565b610a24565b005b610357600480360381019061035291906121a9565b610a86565b6040516103649190612151565b60405180910390f35b610375610a98565b6040516103829190612217565b60405180910390f35b6103a560048036038101906103a0919061256c565b610abe565b6040516103b291906120a6565b60405180910390f35b60006103c682610b52565b9050919050565b6060600080546103dc906125db565b80601f0160208091040260200160405190810160405280929190818152602001828054610408906125db565b80156104555780601f1061042a57610100808354040283529160200191610455565b820191906000526020600020905b81548152906001019060200180831161043857829003601f168201915b5050505050905090565b600061046a82610bcc565b6004600083815260200190815260200160002060009054906101000a900473ffffffffffffffffffffffffffffffffffffffff169050919050565b60006104b08261075f565b90508073ffffffffffffffffffffffffffffffffffffffff168373ffffffffffffffffffffffffffffffffffffffff1603610520576040517f08c379a00000000000000000000000000000000000000000000000000000000081526004016105179061267e565b60405180910390fd5b8073ffffffffffffffffffffffffffffffffffffffff1661053f610c17565b73ffffffffffffffffffffffffffffffffffffffff16148061056e575061056d81610568610c17565b610abe565b5b6105ad576040517f08c379a00000000000000000000000000000000000000000000000000000000081526004016105a490612710565b60405180910390fd5b6105b78383610c1f565b505050565b6000600980549050905090565b6105da6105d4610c17565b82610cd8565b610619576040517f08c379a0000000000000000000000000000000000000000000000000000000008152600401610610906127a2565b60405180910390fd5b610624838383610d6d565b505050565b600061063483610810565b8210610675576040517f08c379a000000000000000000000000000000000000000000000000000000000815260040161066c90612834565b60405180910390fd5b600760008473ffffffffffffffffffffffffffffffffffffffff1673ffffffffffffffffffffffffffffffffffffffff168152602001908152602001600020600083815260200190815260200160002054905092915050565b6106e983838360405180602001604052806000815250610a24565b505050565b60006106f86105bc565b8210610739576040517f08c379a0000000000000000000000000000000000000000000000000000000008152600401610730906128c6565b60405180910390fd5b6009828154811061074d5761074c6128e6565b5b90600052602060002001549050919050565b6000806002600084815260200190815260200160002060009054906101000a900473ffffffffffffffffffffffffffffffffffffffff169050600073ffffffffffffffffffffffffffffffffffffffff168173ffffffffffffffffffffffffffffffffffffffff1603610807576040517f08c379a00000000000000000000000000000000000000000000000000000000081526004016107fe90612961565b60405180910390fd5b80915050919050565b60008073ffffffffffffffffffffffffffffffffffffffff168273ffffffffffffffffffffffffffffffffffffffff1603610880576040517f08c379a0000000000000000000000000000000000000000000000000000000008152600401610877906129f3565b60405180910390fd5b600360008373ffffffffffffffffffffffffffffffffffffffff1673ffffffffffffffffffffffffffffffffffffffff168152602001908152602001600020549050919050565b6060600180546108d6906125db565b80601f0160208091040260200160405190810160405280929190818152602001828054610902906125db565b801561094f5780601f106109245761010080835404028352916020019161094f565b820191906000526020600020905b81548152906001019060200180831161093257829003601f168201915b5050505050905090565b610963600b610fd3565b600061096f600b610fe9565b905061097b8282610ff7565b61099d816040518060600160405280603f815260200161336d603f9139611015565b6109ca600c60009054906101000a900473ffffffffffffffffffffffffffffffffffffffff166001610a0e565b610a0a6040518060400160405280601581526020017f4d696e74656420746f6b656e20257320746f20257300000000000000000000008152508284611082565b5050565b610a20610a19610c17565b8383611121565b5050565b610a35610a2f610c17565b83610cd8565b610a74576040517f08c379a0000000000000000000000000000000000000000000000000000000008152600401610a6b906127a2565b60405180910390fd5b610a808484848461128d565b50505050565b6060610a91826112e9565b9050919050565b600c60009054906101000a900473ffffffffffffffffffffffffffffffffffffffff1681565b6000600560008473ffffffffffffffffffffffffffffffffffffffff1673ffffffffffffffffffffffffffffffffffffffff16815260200190815260200160002060008373ffffffffffffffffffffffffffffffffffffffff1673ffffffffffffffffffffffffffffffffffffffff16815260200190815260200160002060009054906101000a900460ff16905092915050565b60007f780e9d63000000000000000000000000000000000000000000000000000000007bffffffffffffffffffffffffffffffffffffffffffffffffffffffff1916827bffffffffffffffffffffffffffffffffffffffffffffffffffffffff19161480610bc55750610bc4826113fb565b5b9050919050565b610bd5816114dd565b610c14576040517f08c379a0000000000000000000000000000000000000000000000000000000008152600401610c0b90612961565b60405180910390fd5b50565b600033905090565b816004600083815260200190815260200160002060006101000a81548173ffffffffffffffffffffffffffffffffffffffff021916908373ffffffffffffffffffffffffffffffffffffffff160217905550808273ffffffffffffffffffffffffffffffffffffffff16610c928361075f565b73ffffffffffffffffffffffffffffffffffffffff167f8c5be1e5ebec7d5bd14f71427d1e84f3dd0314c0f7b2291e5b200ac8c7c3b92560405160405180910390a45050565b600080610ce48361075f565b90508073ffffffffffffffffffffffffffffffffffffffff168473ffffffffffffffffffffffffffffffffffffffff161480610d265750610d258185610abe565b5b80610d6457508373ffffffffffffffffffffffffffffffffffffffff16610d4c8461045f565b73ffffffffffffffffffffffffffffffffffffffff16145b91505092915050565b8273ffffffffffffffffffffffffffffffffffffffff16610d8d8261075f565b73ffffffffffffffffffffffffffffffffffffffff1614610de3576040517f08c379a0000000000000000000000000000000000000000000000000000000008152600401610dda90612a85565b60405180910390fd5b600073ffffffffffffffffffffffffffffffffffffffff168273ffffffffffffffffffffffffffffffffffffffff1603610e52576040517f08c379a0000000000000000000000000000000000000000000000000000000008152600401610e4990612b17565b60405180910390fd5b610e5d838383611549565b610e68600082610c1f565b6001600360008573ffffffffffffffffffffffffffffffffffffffff1673ffffffffffffffffffffffffffffffffffffffff1681526020019081526020016000206000828254610eb89190612b66565b925050819055506001600360008473ffffffffffffffffffffffffffffffffffffffff1673ffffffffffffffffffffffffffffffffffffffff1681526020019081526020016000206000828254610f0f9190612b9a565b92505081905550816002600083815260200190815260200160002060006101000a81548173ffffffffffffffffffffffffffffffffffffffff021916908373ffffffffffffffffffffffffffffffffffffffff160217905550808273ffffffffffffffffffffffffffffffffffffffff168473ffffffffffffffffffffffffffffffffffffffff167fddf252ad1be2c89b69c2b068fc378daa952ba7f163c4a11628f55a4df523b3ef60405160405180910390a4610fce838383611559565b505050565b6001816000016000828254019250508190555050565b600081600001549050919050565b61101182826040518060200160405280600081525061155e565b5050565b61101e826114dd565b61105d576040517f08c379a000000000000000000000000000000000000000000000000000000000815260040161105490612c40565b60405180910390fd5b8060066000848152602001908152602001600020908161107d9190612e0c565b505050565b61111c83838360405160240161109a93929190612ede565b6040516020818303038152906040527f1c7ec448000000000000000000000000000000000000000000000000000000007bffffffffffffffffffffffffffffffffffffffffffffffffffffffff19166020820180517bffffffffffffffffffffffffffffffffffffffffffffffffffffffff83818316178352505050506115b9565b505050565b8173ffffffffffffffffffffffffffffffffffffffff168373ffffffffffffffffffffffffffffffffffffffff160361118f576040517f08c379a000000000000000000000000000000000000000000000000000000000815260040161118690612f68565b60405180910390fd5b80600560008573ffffffffffffffffffffffffffffffffffffffff1673ffffffffffffffffffffffffffffffffffffffff16815260200190815260200160002060008473ffffffffffffffffffffffffffffffffffffffff1673ffffffffffffffffffffffffffffffffffffffff16815260200190815260200160002060006101000a81548160ff0219169083151502179055508173ffffffffffffffffffffffffffffffffffffffff168373ffffffffffffffffffffffffffffffffffffffff167f17307eab39ab6107e8899845ad3d59bd9653f200f220920489ca2b5937696c318360405161128091906120a6565b60405180910390a3505050565b611298848484610d6d565b6112a4848484846115d3565b6112e3576040517f08c379a00000000000000000000000000000000000000000000000000000000081526004016112da90612ffa565b60405180910390fd5b50505050565b60606112f482610bcc565b6000600660008481526020019081526020016000208054611314906125db565b80601f0160208091040260200160405190810160405280929190818152602001828054611340906125db565b801561138d5780601f106113625761010080835404028352916020019161138d565b820191906000526020600020905b81548152906001019060200180831161137057829003601f168201915b50505050509050600061139e61175a565b905060008151036113b35781925050506113f6565b6000825111156113e85780826040516020016113d0929190613056565b604051602081830303815290604052925050506113f6565b6113f184611771565b925050505b919050565b60007f80ac58cd000000000000000000000000000000000000000000000000000000007bffffffffffffffffffffffffffffffffffffffffffffffffffffffff1916827bffffffffffffffffffffffffffffffffffffffffffffffffffffffff191614806114c657507f5b5e139f000000000000000000000000000000000000000000000000000000007bffffffffffffffffffffffffffffffffffffffffffffffffffffffff1916827bffffffffffffffffffffffffffffffffffffffffffffffffffffffff1916145b806114d657506114d5826117d9565b5b9050919050565b60008073ffffffffffffffffffffffffffffffffffffffff166002600084815260200190815260200160002060009054906101000a900473ffffffffffffffffffffffffffffffffffffffff1673ffffffffffffffffffffffffffffffffffffffff1614159050919050565b611554838383611843565b505050565b505050565b6115688383611955565b61157560008484846115d3565b6115b4576040517f08c379a00000000000000000000000000000000000000000000000000000000081526004016115ab90612ffa565b60405180910390fd5b505050565b6115d0816115c8611b2e611b4f565b63ffffffff16565b50565b60006115f48473ffffffffffffffffffffffffffffffffffffffff16611b5a565b1561174d578373ffffffffffffffffffffffffffffffffffffffff1663150b7a0261161d610c17565b8786866040518563ffffffff1660e01b815260040161163f94939291906130cf565b6020604051808303816000875af192505050801561167b57506040513d601f19601f820116820180604052508101906116789190613130565b60015b6116fd573d80600081146116ab576040519150601f19603f3d011682016040523d82523d6000602084013e6116b0565b606091505b5060008151036116f5576040517f08c379a00000000000000000000000000000000000000000000000000000000081526004016116ec90612ffa565b60405180910390fd5b805181602001fd5b63150b7a0260e01b7bffffffffffffffffffffffffffffffffffffffffffffffffffffffff1916817bffffffffffffffffffffffffffffffffffffffffffffffffffffffff191614915050611752565b600190505b949350505050565b606060405180602001604052806000815250905090565b606061177c82610bcc565b600061178661175a565b905060008151116117a657604051806020016040528060008152506117d1565b806117b084611b7d565b6040516020016117c1929190613056565b6040516020818303038152906040525b915050919050565b60007f01ffc9a7000000000000000000000000000000000000000000000000000000007bffffffffffffffffffffffffffffffffffffffffffffffffffffffff1916827bffffffffffffffffffffffffffffffffffffffffffffffffffffffff1916149050919050565b61184e838383611cdd565b600073ffffffffffffffffffffffffffffffffffffffff168373ffffffffffffffffffffffffffffffffffffffff16036118905761188b81611ce2565b6118cf565b8173ffffffffffffffffffffffffffffffffffffffff168373ffffffffffffffffffffffffffffffffffffffff16146118ce576118cd8382611d2b565b5b5b600073ffffffffffffffffffffffffffffffffffffffff168273ffffffffffffffffffffffffffffffffffffffff16036119115761190c81611e98565b611950565b8273ffffffffffffffffffffffffffffffffffffffff168273ffffffffffffffffffffffffffffffffffffffff161461194f5761194e8282611f69565b5b5b505050565b600073ffffffffffffffffffffffffffffffffffffffff168273ffffffffffffffffffffffffffffffffffffffff16036119c4576040517f08c379a00000000000000000000000000000000000000000000000000000000081526004016119bb906131a9565b60405180910390fd5b6119cd816114dd565b15611a0d576040517f08c379a0000000000000000000000000000000000000000000000000000000008152600401611a0490613215565b60405180910390fd5b611a1960008383611549565b6001600360008473ffffffffffffffffffffffffffffffffffffffff1673ffffffffffffffffffffffffffffffffffffffff1681526020019081526020016000206000828254611a699190612b9a565b92505081905550816002600083815260200190815260200160002060006101000a81548173ffffffffffffffffffffffffffffffffffffffff021916908373ffffffffffffffffffffffffffffffffffffffff160217905550808273ffffffffffffffffffffffffffffffffffffffff16600073ffffffffffffffffffffffffffffffffffffffff167fddf252ad1be2c89b69c2b068fc378daa952ba7f163c4a11628f55a4df523b3ef60405160405180910390a4611b2a60008383611559565b5050565b60006a636f6e736f6c652e6c6f679050600080835160208501845afa505050565b611fe8819050919050565b6000808273ffffffffffffffffffffffffffffffffffffffff163b119050919050565b606060008203611bc4576040518060400160405280600181526020017f30000000000000000000000000000000000000000000000000000000000000008152509050611cd8565b600082905060005b60008214611bf6578080611bdf90613235565b915050600a82611bef91906132ac565b9150611bcc565b60008167ffffffffffffffff811115611c1257611c116123be565b5b6040519080825280601f01601f191660200182016040528015611c445781602001600182028036833780820191505090505b5090505b60008514611cd157600182611c5d9190612b66565b9150600a85611c6c91906132dd565b6030611c789190612b9a565b60f81b818381518110611c8e57611c8d6128e6565b5b60200101907effffffffffffffffffffffffffffffffffffffffffffffffffffffffffffff1916908160001a905350600a85611cca91906132ac565b9450611c48565b8093505050505b919050565b505050565b600980549050600a600083815260200190815260200160002081905550600981908060018154018082558091505060019003906000526020600020016000909190919091505550565b60006001611d3884610810565b611d429190612b66565b9050600060086000848152602001908152602001600020549050818114611e27576000600760008673ffffffffffffffffffffffffffffffffffffffff1673ffffffffffffffffffffffffffffffffffffffff168152602001908152602001600020600084815260200190815260200160002054905080600760008773ffffffffffffffffffffffffffffffffffffffff1673ffffffffffffffffffffffffffffffffffffffff168152602001908152602001600020600084815260200190815260200160002081905550816008600083815260200190815260200160002081905550505b6008600084815260200190815260200160002060009055600760008573ffffffffffffffffffffffffffffffffffffffff1673ffffffffffffffffffffffffffffffffffffffff16815260200190815260200160002060008381526020019081526020016000206000905550505050565b60006001600980549050611eac9190612b66565b90506000600a6000848152602001908152602001600020549050600060098381548110611edc57611edb6128e6565b5b906000526020600020015490508060098381548110611efe57611efd6128e6565b5b906000526020600020018190555081600a600083815260200190815260200160002081905550600a6000858152602001908152602001600020600090556009805480611f4d57611f4c61330e565b5b6001900381819060005260206000200160009055905550505050565b6000611f7483610810565b905081600760008573ffffffffffffffffffffffffffffffffffffffff1673ffffffffffffffffffffffffffffffffffffffff168152602001908152602001600020600083815260200190815260200160002081905550806008600084815260200190815260200160002081905550505050565b611ff061333d565b565b6000604051905090565b600080fd5b600080fd5b60007fffffffff0000000000000000000000000000000000000000000000000000000082169050919050565b61203b81612006565b811461204657600080fd5b50565b60008135905061205881612032565b92915050565b60006020828403121561207457612073611ffc565b5b600061208284828501612049565b91505092915050565b60008115159050919050565b6120a08161208b565b82525050565b60006020820190506120bb6000830184612097565b92915050565b600081519050919050565b600082825260208201905092915050565b60005b838110156120fb5780820151818401526020810190506120e0565b60008484015250505050565b6000601f19601f8301169050919050565b6000612123826120c1565b61212d81856120cc565b935061213d8185602086016120dd565b61214681612107565b840191505092915050565b6000602082019050818103600083015261216b8184612118565b905092915050565b6000819050919050565b61218681612173565b811461219157600080fd5b50565b6000813590506121a38161217d565b92915050565b6000602082840312156121bf576121be611ffc565b5b60006121cd84828501612194565b91505092915050565b600073ffffffffffffffffffffffffffffffffffffffff82169050919050565b6000612201826121d6565b9050919050565b612211816121f6565b82525050565b600060208201905061222c6000830184612208565b92915050565b61223b816121f6565b811461224657600080fd5b50565b60008135905061225881612232565b92915050565b6000806040838503121561227557612274611ffc565b5b600061228385828601612249565b925050602061229485828601612194565b9150509250929050565b6122a781612173565b82525050565b60006020820190506122c2600083018461229e565b92915050565b6000806000606084860312156122e1576122e0611ffc565b5b60006122ef86828701612249565b935050602061230086828701612249565b925050604061231186828701612194565b9150509250925092565b60006020828403121561233157612330611ffc565b5b600061233f84828501612249565b91505092915050565b6123518161208b565b811461235c57600080fd5b50565b60008135905061236e81612348565b92915050565b6000806040838503121561238b5761238a611ffc565b5b600061239985828601612249565b92505060206123aa8582860161235f565b9150509250929050565b600080fd5b600080fd5b7f4e487b7100000000000000000000000000000000000000000000000000000000600052604160045260246000fd5b6123f682612107565b810181811067ffffffffffffffff82111715612415576124146123be565b5b80604052505050565b6000612428611ff2565b905061243482826123ed565b919050565b600067ffffffffffffffff821115612454576124536123be565b5b61245d82612107565b9050602081019050919050565b82818337600083830152505050565b600061248c61248784612439565b61241e565b9050828152602081018484840111156124a8576124a76123b9565b5b6124b384828561246a565b509392505050565b600082601f8301126124d0576124cf6123b4565b5b81356124e0848260208601612479565b91505092915050565b6000806000806080858703121561250357612502611ffc565b5b600061251187828801612249565b945050602061252287828801612249565b935050604061253387828801612194565b925050606085013567ffffffffffffffff81111561255457612553612001565b5b612560878288016124bb565b91505092959194509250565b6000806040838503121561258357612582611ffc565b5b600061259185828601612249565b92505060206125a285828601612249565b9150509250929050565b7f4e487b7100000000000000000000000000000000000000000000000000000000600052602260045260246000fd5b600060028204905060018216806125f357607f821691505b602082108103612606576126056125ac565b5b50919050565b7f4552433732313a20617070726f76616c20746f2063757272656e74206f776e6560008201527f7200000000000000000000000000000000000000000000000000000000000000602082015250565b60006126686021836120cc565b91506126738261260c565b604082019050919050565b600060208201905081810360008301526126978161265b565b9050919050565b7f4552433732313a20617070726f76652063616c6c6572206973206e6f7420746f60008201527f6b656e206f776e6572206e6f7220617070726f76656420666f7220616c6c0000602082015250565b60006126fa603e836120cc565b91506127058261269e565b604082019050919050565b60006020820190508181036000830152612729816126ed565b9050919050565b7f4552433732313a2063616c6c6572206973206e6f7420746f6b656e206f776e6560008201527f72206e6f7220617070726f766564000000000000000000000000000000000000602082015250565b600061278c602e836120cc565b915061279782612730565b604082019050919050565b600060208201905081810360008301526127bb8161277f565b9050919050565b7f455243373231456e756d657261626c653a206f776e657220696e646578206f7560008201527f74206f6620626f756e6473000000000000000000000000000000000000000000602082015250565b600061281e602b836120cc565b9150612829826127c2565b604082019050919050565b6000602082019050818103600083015261284d81612811565b9050919050565b7f455243373231456e756d657261626c653a20676c6f62616c20696e646578206f60008201527f7574206f6620626f756e64730000000000000000000000000000000000000000602082015250565b60006128b0602c836120cc565b91506128bb82612854565b604082019050919050565b600060208201905081810360008301526128df816128a3565b9050919050565b7f4e487b7100000000000000000000000000000000000000000000000000000000600052603260045260246000fd5b7f4552433732313a20696e76616c696420746f6b656e2049440000000000000000600082015250565b600061294b6018836120cc565b915061295682612915565b602082019050919050565b6000602082019050818103600083015261297a8161293e565b9050919050565b7f4552433732313a2061646472657373207a65726f206973206e6f74206120766160008201527f6c6964206f776e65720000000000000000000000000000000000000000000000602082015250565b60006129dd6029836120cc565b91506129e882612981565b604082019050919050565b60006020820190508181036000830152612a0c816129d0565b9050919050565b7f4552433732313a207472616e736665722066726f6d20696e636f72726563742060008201527f6f776e6572000000000000000000000000000000000000000000000000000000602082015250565b6000612a6f6025836120cc565b9150612a7a82612a13565b604082019050919050565b60006020820190508181036000830152612a9e81612a62565b9050919050565b7f4552433732313a207472616e7366657220746f20746865207a65726f2061646460008201527f7265737300000000000000000000000000000000000000000000000000000000602082015250565b6000612b016024836120cc565b9150612b0c82612aa5565b604082019050919050565b60006020820190508181036000830152612b3081612af4565b9050919050565b7f4e487b7100000000000000000000000000000000000000000000000000000000600052601160045260246000fd5b6000612b7182612173565b9150612b7c83612173565b9250828203905081811115612b9457612b93612b37565b5b92915050565b6000612ba582612173565b9150612bb083612173565b9250828201905080821115612bc857612bc7612b37565b5b92915050565b7f45524337323155524953746f726167653a2055524920736574206f66206e6f6e60008201527f6578697374656e7420746f6b656e000000000000000000000000000000000000602082015250565b6000612c2a602e836120cc565b9150612c3582612bce565b604082019050919050565b60006020820190508181036000830152612c5981612c1d565b9050919050565b60008190508160005260206000209050919050565b60006020601f8301049050919050565b600082821b905092915050565b600060088302612cc27fffffffffffffffffffffffffffffffffffffffffffffffffffffffffffffffff82612c85565b612ccc8683612c85565b95508019841693508086168417925050509392505050565b6000819050919050565b6000612d09612d04612cff84612173565b612ce4565b612173565b9050919050565b6000819050919050565b612d2383612cee565b612d37612d2f82612d10565b848454612c92565b825550505050565b600090565b612d4c612d3f565b612d57818484612d1a565b505050565b5b81811015612d7b57612d70600082612d44565b600181019050612d5d565b5050565b601f821115612dc057612d9181612c60565b612d9a84612c75565b81016020851015612da9578190505b612dbd612db585612c75565b830182612d5c565b50505b505050565b600082821c905092915050565b6000612de360001984600802612dc5565b1980831691505092915050565b6000612dfc8383612dd2565b9150826002028217905092915050565b612e15826120c1565b67ffffffffffffffff811115612e2e57612e2d6123be565b5b612e3882546125db565b612e43828285612d7f565b600060209050601f831160018114612e765760008415612e64578287015190505b612e6e8582612df0565b865550612ed6565b601f198416612e8486612c60565b60005b82811015612eac57848901518255600182019150602085019450602081019050612e87565b86831015612ec95784890151612ec5601f891682612dd2565b8355505b6001600288020188555050505b505050505050565b60006060820190508181036000830152612ef88186612118565b9050612f07602083018561229e565b612f146040830184612208565b949350505050565b7f4552433732313a20617070726f766520746f2063616c6c657200000000000000600082015250565b6000612f526019836120cc565b9150612f5d82612f1c565b602082019050919050565b60006020820190508181036000830152612f8181612f45565b9050919050565b7f4552433732313a207472616e7366657220746f206e6f6e20455243373231526560008201527f63656976657220696d706c656d656e7465720000000000000000000000000000602082015250565b6000612fe46032836120cc565b9150612fef82612f88565b604082019050919050565b6000602082019050818103600083015261301381612fd7565b9050919050565b600081905092915050565b6000613030826120c1565b61303a818561301a565b935061304a8185602086016120dd565b80840191505092915050565b60006130628285613025565b915061306e8284613025565b91508190509392505050565b600081519050919050565b600082825260208201905092915050565b60006130a18261307a565b6130ab8185613085565b93506130bb8185602086016120dd565b6130c481612107565b840191505092915050565b60006080820190506130e46000830187612208565b6130f16020830186612208565b6130fe604083018561229e565b81810360608301526131108184613096565b905095945050505050565b60008151905061312a81612032565b92915050565b60006020828403121561314657613145611ffc565b5b60006131548482850161311b565b91505092915050565b7f4552433732313a206d696e7420746f20746865207a65726f2061646472657373600082015250565b60006131936020836120cc565b915061319e8261315d565b602082019050919050565b600060208201905081810360008301526131c281613186565b9050919050565b7f4552433732313a20746f6b656e20616c7265616479206d696e74656400000000600082015250565b60006131ff601c836120cc565b915061320a826131c9565b602082019050919050565b6000602082019050818103600083015261322e816131f2565b9050919050565b600061324082612173565b91507fffffffffffffffffffffffffffffffffffffffffffffffffffffffffffffffff820361327257613271612b37565b5b600182019050919050565b7f4e487b7100000000000000000000000000000000000000000000000000000000600052601260045260246000fd5b60006132b782612173565b91506132c283612173565b9250826132d2576132d161327d565b5b828204905092915050565b60006132e882612173565b91506132f383612173565b9250826133035761330261327d565b5b828206905092915050565b7f4e487b7100000000000000000000000000000000000000000000000000000000600052603160045260246000fd5b7f4e487b7100000000000000000000000000000000000000000000000000000000600052605160045260246000fdfe68747470733a2f2f617277656176652e6e65742f4f73716c6d46422d695f644e394a31675f6a53765664736f5258504a42337578397574445a376973306b4da26469706673582212208091a30055278a261b1b00aba50b994fc546bc099b403db89115130b0a951e6464736f6c63430008110033",
  "linkReferences": {},
  "deployedLinkReferences": {}
}